{
  "contractName": "BalanceProvider",
  "abi": [
    {
      "inputs": [],
      "stateMutability": "nonpayable",
      "type": "constructor"
    },
    {
      "inputs": [
        {
          "internalType": "address",
          "name": "user",
          "type": "address"
        },
        {
          "internalType": "address[]",
          "name": "tokens",
          "type": "address[]"
        }
      ],
      "name": "getBalances",
      "outputs": [
        {
          "components": [
            {
              "internalType": "address",
              "name": "token",
              "type": "address"
            },
            {
              "internalType": "uint256",
              "name": "balance",
              "type": "uint256"
            }
          ],
          "internalType": "struct BalanceProvider.Balance[]",
          "name": "balances",
          "type": "tuple[]"
        }
      ],
      "stateMutability": "view",
      "type": "function"
    }
  ],
  "bytecode": "0x608060405234801561001057600080fd5b506103ca806100206000396000f3fe608060405234801561001057600080fd5b506004361061002b5760003560e01c80636a385ae914610030575b600080fd5b61004361003e3660046101ef565b610059565b60405161005091906102e7565b60405180910390f35b6060815167ffffffffffffffff8111156100755761007561037e565b6040519080825280602002602001820160405280156100ba57816020015b60408051808201909152600080825260208201528152602001906001900390816100935790505b50905060005b82518110156101cc5760008382815181106100dd576100dd610368565b60209081029190910101516040516370a0823160e01b81526001600160a01b038781166004830152909116906370a082319060240160206040518083038186803b15801561012a57600080fd5b505afa15801561013e573d6000803e3d6000fd5b505050506040513d601f19601f8201168201806040525081019061016291906102ce565b9050604051806040016040528085848151811061018157610181610368565b60200260200101516001600160a01b03168152602001828152508383815181106101ad576101ad610368565b60200260200101819052505080806101c49061033f565b9150506100c0565b5092915050565b80356001600160a01b03811681146101ea57600080fd5b919050565b6000806040838503121561020257600080fd5b61020b836101d3565b915060208084013567ffffffffffffffff8082111561022957600080fd5b818601915086601f83011261023d57600080fd5b81358181111561024f5761024f61037e565b8060051b604051601f19603f830116810181811085821117156102745761027461037e565b604052828152858101935084860182860187018b101561029357600080fd5b600095505b838610156102bd576102a9816101d3565b855260019590950194938601938601610298565b508096505050505050509250929050565b6000602082840312156102e057600080fd5b5051919050565b602080825282518282018190526000919060409081850190868401855b8281101561033257815180516001600160a01b03168552860151868501529284019290850190600101610304565b5091979650505050505050565b600060001982141561036157634e487b7160e01b600052601160045260246000fd5b5060010190565b634e487b7160e01b600052603260045260246000fd5b634e487b7160e01b600052604160045260246000fdfea2646970667358221220b340c62aa91fd9969a1f26b91625adf4e9c518c4f7121fb8d610fc887c3b79f064736f6c63430008070033",
  "immutableReferences": {},
  "source": "// SPDX-License-Identifier: BUSL-1.1\r\npragma solidity >=0.8.6;\r\npragma experimental ABIEncoderV2;\r\n\r\nimport { IERC20 } from \"@openzeppelin/contracts/token/ERC20/utils/SafeERC20.sol\";\r\n\r\ncontract BalanceProvider {\r\n  struct Balance {\r\n    address token;\r\n    uint256 balance;\r\n  }\r\n\r\n  constructor() {\r\n\r\n  }\r\n\r\n  function getBalances(address user, address[] memory tokens) \r\n    public\r\n    view\r\n    returns (Balance[] memory balances)\r\n  {\r\n    balances = new Balance[](tokens.length);\r\n    for (uint i = 0; i < tokens.length; i++) {\r\n      uint256 balance = IERC20(tokens[i]).balanceOf(user);\r\n      balances[i] = Balance(tokens[i], balance);\r\n    }\r\n  }\r\n}\r\n",
  "sourcePath": "E:\\JobHunting\\20220321_SaladVentures\\Code-Challenge\\src\\problem5\\contracts\\BalanceProvider.sol",
  "compiler": {
    "name": "solc",
    "version": "0.8.7+commit.e28d00a7.Emscripten.clang"
  },
  "schemaVersion": "3.4.3",
  "updatedAt": "2022-03-23T12:02:15.351Z",
  "devdoc": {
    "kind": "dev",
    "methods": {},
    "version": 1
  },
  "userdoc": {
    "kind": "user",
    "methods": {},
    "version": 1
  }
}